{
  "_format": "hh-sol-artifact-1",
  "contractName": "SoulboundToken",
  "sourceName": "contracts/SoulboundToken.sol",
  "abi": [
    {
      "inputs": [],
      "stateMutability": "nonpayable",
      "type": "constructor"
    },
    {
      "anonymous": false,
      "inputs": [
        {
          "indexed": true,
          "internalType": "address",
          "name": "owner",
          "type": "address"
        },
        {
          "indexed": true,
          "internalType": "address",
          "name": "approved",
          "type": "address"
        },
        {
          "indexed": true,
          "internalType": "uint256",
          "name": "tokenId",
          "type": "uint256"
        }
      ],
      "name": "Approval",
      "type": "event"
    },
    {
      "anonymous": false,
      "inputs": [
        {
          "indexed": true,
          "internalType": "address",
          "name": "owner",
          "type": "address"
        },
        {
          "indexed": true,
          "internalType": "address",
          "name": "operator",
          "type": "address"
        },
        {
          "indexed": false,
          "internalType": "bool",
          "name": "approved",
          "type": "bool"
        }
      ],
      "name": "ApprovalForAll",
      "type": "event"
    },
    {
      "anonymous": false,
      "inputs": [
        {
          "indexed": false,
          "internalType": "uint256",
          "name": "_fromTokenId",
          "type": "uint256"
        },
        {
          "indexed": false,
          "internalType": "uint256",
          "name": "_toTokenId",
          "type": "uint256"
        }
      ],
      "name": "BatchMetadataUpdate",
      "type": "event"
    },
    {
      "anonymous": false,
      "inputs": [
        {
          "indexed": false,
          "internalType": "uint256",
          "name": "_tokenId",
          "type": "uint256"
        }
      ],
      "name": "MetadataUpdate",
      "type": "event"
    },
    {
      "anonymous": false,
      "inputs": [
        {
          "indexed": true,
          "internalType": "address",
          "name": "previousOwner",
          "type": "address"
        },
        {
          "indexed": true,
          "internalType": "address",
          "name": "newOwner",
          "type": "address"
        }
      ],
      "name": "OwnershipTransferred",
      "type": "event"
    },
    {
      "anonymous": false,
      "inputs": [
        {
          "indexed": true,
          "internalType": "address",
          "name": "from",
          "type": "address"
        },
        {
          "indexed": true,
          "internalType": "address",
          "name": "to",
          "type": "address"
        },
        {
          "indexed": true,
          "internalType": "uint256",
          "name": "tokenId",
          "type": "uint256"
        }
      ],
      "name": "Transfer",
      "type": "event"
    },
    {
      "inputs": [
        {
          "internalType": "address",
          "name": "",
          "type": "address"
        }
      ],
      "name": "addressToTokenId",
      "outputs": [
        {
          "internalType": "uint256",
          "name": "",
          "type": "uint256"
        }
      ],
      "stateMutability": "view",
      "type": "function"
    },
    {
      "inputs": [
        {
          "internalType": "address",
          "name": "to",
          "type": "address"
        },
        {
          "internalType": "uint256",
          "name": "tokenId",
          "type": "uint256"
        }
      ],
      "name": "approve",
      "outputs": [],
      "stateMutability": "nonpayable",
      "type": "function"
    },
    {
      "inputs": [
        {
          "internalType": "address",
          "name": "owner",
          "type": "address"
        }
      ],
      "name": "balanceOf",
      "outputs": [
        {
          "internalType": "uint256",
          "name": "",
          "type": "uint256"
        }
      ],
      "stateMutability": "view",
      "type": "function"
    },
    {
      "inputs": [
        {
          "internalType": "uint256",
          "name": "tokenId",
          "type": "uint256"
        }
      ],
      "name": "getApproved",
      "outputs": [
        {
          "internalType": "address",
          "name": "",
          "type": "address"
        }
      ],
      "stateMutability": "view",
      "type": "function"
    },
    {
      "inputs": [
        {
          "internalType": "address",
          "name": "owner",
          "type": "address"
        },
        {
          "internalType": "address",
          "name": "operator",
          "type": "address"
        }
      ],
      "name": "isApprovedForAll",
      "outputs": [
        {
          "internalType": "bool",
          "name": "",
          "type": "bool"
        }
      ],
      "stateMutability": "view",
      "type": "function"
    },
    {
      "inputs": [
        {
          "internalType": "string",
          "name": "tokenURI",
          "type": "string"
        }
      ],
      "name": "mintOrUpdate",
      "outputs": [],
      "stateMutability": "nonpayable",
      "type": "function"
    },
    {
      "inputs": [],
      "name": "name",
      "outputs": [
        {
          "internalType": "string",
          "name": "",
          "type": "string"
        }
      ],
      "stateMutability": "view",
      "type": "function"
    },
    {
      "inputs": [],
      "name": "owner",
      "outputs": [
        {
          "internalType": "address",
          "name": "",
          "type": "address"
        }
      ],
      "stateMutability": "view",
      "type": "function"
    },
    {
      "inputs": [
        {
          "internalType": "uint256",
          "name": "tokenId",
          "type": "uint256"
        }
      ],
      "name": "ownerOf",
      "outputs": [
        {
          "internalType": "address",
          "name": "",
          "type": "address"
        }
      ],
      "stateMutability": "view",
      "type": "function"
    },
    {
      "inputs": [],
      "name": "renounceOwnership",
      "outputs": [],
      "stateMutability": "nonpayable",
      "type": "function"
    },
    {
      "inputs": [
        {
          "internalType": "address",
          "name": "from",
          "type": "address"
        },
        {
          "internalType": "address",
          "name": "to",
          "type": "address"
        },
        {
          "internalType": "uint256",
          "name": "tokenId",
          "type": "uint256"
        }
      ],
      "name": "safeTransferFrom",
      "outputs": [],
      "stateMutability": "nonpayable",
      "type": "function"
    },
    {
      "inputs": [
        {
          "internalType": "address",
          "name": "from",
          "type": "address"
        },
        {
          "internalType": "address",
          "name": "to",
          "type": "address"
        },
        {
          "internalType": "uint256",
          "name": "tokenId",
          "type": "uint256"
        },
        {
          "internalType": "bytes",
          "name": "_data",
          "type": "bytes"
        }
      ],
      "name": "safeTransferFrom",
      "outputs": [],
      "stateMutability": "nonpayable",
      "type": "function"
    },
    {
      "inputs": [
        {
          "internalType": "address",
          "name": "operator",
          "type": "address"
        },
        {
          "internalType": "bool",
          "name": "approved",
          "type": "bool"
        }
      ],
      "name": "setApprovalForAll",
      "outputs": [],
      "stateMutability": "nonpayable",
      "type": "function"
    },
    {
      "inputs": [
        {
          "internalType": "bytes4",
          "name": "interfaceId",
          "type": "bytes4"
        }
      ],
      "name": "supportsInterface",
      "outputs": [
        {
          "internalType": "bool",
          "name": "",
          "type": "bool"
        }
      ],
      "stateMutability": "view",
      "type": "function"
    },
    {
      "inputs": [],
      "name": "symbol",
      "outputs": [
        {
          "internalType": "string",
          "name": "",
          "type": "string"
        }
      ],
      "stateMutability": "view",
      "type": "function"
    },
    {
      "inputs": [
        {
          "internalType": "uint256",
          "name": "tokenId",
          "type": "uint256"
        }
      ],
      "name": "tokenURI",
      "outputs": [
        {
          "internalType": "string",
          "name": "",
          "type": "string"
        }
      ],
      "stateMutability": "view",
      "type": "function"
    },
    {
      "inputs": [
        {
          "internalType": "address",
          "name": "from",
          "type": "address"
        },
        {
          "internalType": "address",
          "name": "to",
          "type": "address"
        },
        {
          "internalType": "uint256",
          "name": "tokenId",
          "type": "uint256"
        }
      ],
      "name": "transferFrom",
      "outputs": [],
      "stateMutability": "nonpayable",
      "type": "function"
    },
    {
      "inputs": [
        {
          "internalType": "address",
          "name": "newOwner",
          "type": "address"
        }
      ],
      "name": "transferOwnership",
      "outputs": [],
      "stateMutability": "nonpayable",
      "type": "function"
    }
  ],
  "bytecode": "0x60806040523480156200001157600080fd5b506040518060400160405280600c81526020017f536f6369616c46692053425400000000000000000000000000000000000000008152506040518060400160405280600381526020017f534254000000000000000000000000000000000000000000000000000000000081525081600090816200008f91906200041a565b508060019081620000a191906200041a565b505050620000c4620000b8620000d260201b60201c565b620000da60201b60201c565b600160088190555062000501565b600033905090565b6000600760009054906101000a900473ffffffffffffffffffffffffffffffffffffffff16905081600760006101000a81548173ffffffffffffffffffffffffffffffffffffffff021916908373ffffffffffffffffffffffffffffffffffffffff1602179055508173ffffffffffffffffffffffffffffffffffffffff168173ffffffffffffffffffffffffffffffffffffffff167f8be0079c531659141344cd1fd0a4f28419497f9722a3daafe3b4186f6b6457e060405160405180910390a35050565b600081519050919050565b7f4e487b7100000000000000000000000000000000000000000000000000000000600052604160045260246000fd5b7f4e487b7100000000000000000000000000000000000000000000000000000000600052602260045260246000fd5b600060028204905060018216806200022257607f821691505b602082108103620002385762000237620001da565b5b50919050565b60008190508160005260206000209050919050565b60006020601f8301049050919050565b600082821b905092915050565b600060088302620002a27fffffffffffffffffffffffffffffffffffffffffffffffffffffffffffffffff8262000263565b620002ae868362000263565b95508019841693508086168417925050509392505050565b6000819050919050565b6000819050919050565b6000620002fb620002f5620002ef84620002c6565b620002d0565b620002c6565b9050919050565b6000819050919050565b6200031783620002da565b6200032f620003268262000302565b84845462000270565b825550505050565b600090565b6200034662000337565b620003538184846200030c565b505050565b5b818110156200037b576200036f6000826200033c565b60018101905062000359565b5050565b601f821115620003ca5762000394816200023e565b6200039f8462000253565b81016020851015620003af578190505b620003c7620003be8562000253565b83018262000358565b50505b505050565b600082821c905092915050565b6000620003ef60001984600802620003cf565b1980831691505092915050565b60006200040a8383620003dc565b9150826002028217905092915050565b6200042582620001a0565b67ffffffffffffffff811115620004415762000440620001ab565b5b6200044d825462000209565b6200045a8282856200037f565b600060209050601f8311600181146200049257600084156200047d578287015190505b620004898582620003fc565b865550620004f9565b601f198416620004a2866200023e565b60005b82811015620004cc57848901518255600182019150602085019450602081019050620004a5565b86831015620004ec5784890151620004e8601f891682620003dc565b8355505b6001600288020188555050505b505050505050565b6126b580620005116000396000f3fe608060405234801561001057600080fd5b50600436106101165760003560e01c806370a08231116100a2578063a22cb46511610071578063a22cb465146102df578063b88d4fde146102fb578063c87b56dd14610317578063e985e9c514610347578063f2fde38b1461037757610116565b806370a0823114610269578063715018a6146102995780638da5cb5b146102a357806395d89b41146102c157610116565b80630b59676a116100e95780630b59676a146101b557806323b872dd146101d157806342842e0e146101ed5780636352211e146102095780636511bf2e1461023957610116565b806301ffc9a71461011b57806306fdde031461014b578063081812fc14610169578063095ea7b314610199575b600080fd5b6101356004803603810190610130919061171c565b610393565b6040516101429190611764565b60405180910390f35b6101536103f4565b604051610160919061180f565b60405180910390f35b610183600480360381019061017e9190611867565b610486565b60405161019091906118d5565b60405180910390f35b6101b360048036038101906101ae919061191c565b6104cc565b005b6101cf60048036038101906101ca9190611a91565b610507565b005b6101eb60048036038101906101e69190611ada565b6105cd565b005b61020760048036038101906102029190611ada565b610608565b005b610223600480360381019061021e9190611867565b610643565b60405161023091906118d5565b60405180910390f35b610253600480360381019061024e9190611b2d565b6106c9565b6040516102609190611b69565b60405180910390f35b610283600480360381019061027e9190611b2d565b6106e1565b6040516102909190611b69565b60405180910390f35b6102a1610798565b005b6102ab6107ac565b6040516102b891906118d5565b60405180910390f35b6102c96107d6565b6040516102d6919061180f565b60405180910390f35b6102f960048036038101906102f49190611bb0565b610868565b005b61031560048036038101906103109190611c91565b6108a3565b005b610331600480360381019061032c9190611867565b6108de565b60405161033e919061180f565b60405180910390f35b610361600480360381019061035c9190611d14565b6109f0565b60405161036e9190611764565b60405180910390f35b610391600480360381019061038c9190611b2d565b610a84565b005b6000634906490660e01b7bffffffffffffffffffffffffffffffffffffffffffffffffffffffff1916827bffffffffffffffffffffffffffffffffffffffffffffffffffffffff191614806103ed57506103ec82610b07565b5b9050919050565b60606000805461040390611d83565b80601f016020809104026020016040519081016040528092919081815260200182805461042f90611d83565b801561047c5780601f106104515761010080835404028352916020019161047c565b820191906000526020600020905b81548152906001019060200180831161045f57829003601f168201915b5050505050905090565b600061049182610be9565b6004600083815260200190815260200160002060009054906101000a900473ffffffffffffffffffffffffffffffffffffffff169050919050565b6040517f08c379a00000000000000000000000000000000000000000000000000000000081526004016104fe90611e00565b60405180910390fd5b6000600960003373ffffffffffffffffffffffffffffffffffffffff1673ffffffffffffffffffffffffffffffffffffffff168152602001908152602001600020549050600081036105bf5760085490506008600081548092919061056b90611e4f565b919050555061057a3382610c34565b80600960003373ffffffffffffffffffffffffffffffffffffffff1673ffffffffffffffffffffffffffffffffffffffff168152602001908152602001600020819055505b6105c98183610c52565b5050565b6040517f08c379a00000000000000000000000000000000000000000000000000000000081526004016105ff90611e00565b60405180910390fd5b6040517f08c379a000000000000000000000000000000000000000000000000000000000815260040161063a90611e00565b60405180910390fd5b60008061064f83610cf6565b9050600073ffffffffffffffffffffffffffffffffffffffff168173ffffffffffffffffffffffffffffffffffffffff16036106c0576040517f08c379a00000000000000000000000000000000000000000000000000000000081526004016106b790611ee3565b60405180910390fd5b80915050919050565b60096020528060005260406000206000915090505481565b60008073ffffffffffffffffffffffffffffffffffffffff168273ffffffffffffffffffffffffffffffffffffffff1603610751576040517f08c379a000000000000000000000000000000000000000000000000000000000815260040161074890611f75565b60405180910390fd5b600360008373ffffffffffffffffffffffffffffffffffffffff1673ffffffffffffffffffffffffffffffffffffffff168152602001908152602001600020549050919050565b6107a0610d33565b6107aa6000610db1565b565b6000600760009054906101000a900473ffffffffffffffffffffffffffffffffffffffff16905090565b6060600180546107e590611d83565b80601f016020809104026020016040519081016040528092919081815260200182805461081190611d83565b801561085e5780601f106108335761010080835404028352916020019161085e565b820191906000526020600020905b81548152906001019060200180831161084157829003601f168201915b5050505050905090565b6040517f08c379a000000000000000000000000000000000000000000000000000000000815260040161089a90611e00565b60405180910390fd5b6040517f08c379a00000000000000000000000000000000000000000000000000000000081526004016108d590611e00565b60405180910390fd5b60606108e982610be9565b600060066000848152602001908152602001600020805461090990611d83565b80601f016020809104026020016040519081016040528092919081815260200182805461093590611d83565b80156109825780601f1061095757610100808354040283529160200191610982565b820191906000526020600020905b81548152906001019060200180831161096557829003601f168201915b505050505090506000610993610e77565b905060008151036109a85781925050506109eb565b6000825111156109dd5780826040516020016109c5929190611fd1565b604051602081830303815290604052925050506109eb565b6109e684610e8e565b925050505b919050565b6000600560008473ffffffffffffffffffffffffffffffffffffffff1673ffffffffffffffffffffffffffffffffffffffff16815260200190815260200160002060008373ffffffffffffffffffffffffffffffffffffffff1673ffffffffffffffffffffffffffffffffffffffff16815260200190815260200160002060009054906101000a900460ff16905092915050565b610a8c610d33565b600073ffffffffffffffffffffffffffffffffffffffff168173ffffffffffffffffffffffffffffffffffffffff1603610afb576040517f08c379a0000000000000000000000000000000000000000000000000000000008152600401610af290612067565b60405180910390fd5b610b0481610db1565b50565b60007f80ac58cd000000000000000000000000000000000000000000000000000000007bffffffffffffffffffffffffffffffffffffffffffffffffffffffff1916827bffffffffffffffffffffffffffffffffffffffffffffffffffffffff19161480610bd257507f5b5e139f000000000000000000000000000000000000000000000000000000007bffffffffffffffffffffffffffffffffffffffffffffffffffffffff1916827bffffffffffffffffffffffffffffffffffffffffffffffffffffffff1916145b80610be25750610be182610ef6565b5b9050919050565b610bf281610f60565b610c31576040517f08c379a0000000000000000000000000000000000000000000000000000000008152600401610c2890611ee3565b60405180910390fd5b50565b610c4e828260405180602001604052806000815250610fa1565b5050565b610c5b82610f60565b610c9a576040517f08c379a0000000000000000000000000000000000000000000000000000000008152600401610c91906120f9565b60405180910390fd5b80600660008481526020019081526020016000209081610cba91906122c5565b507ff8e1a15aba9398e019f0b49df1a4fde98ee17ae345cb5f6b5e2c27f5033e8ce782604051610cea9190611b69565b60405180910390a15050565b60006002600083815260200190815260200160002060009054906101000a900473ffffffffffffffffffffffffffffffffffffffff169050919050565b610d3b610ffc565b73ffffffffffffffffffffffffffffffffffffffff16610d596107ac565b73ffffffffffffffffffffffffffffffffffffffff1614610daf576040517f08c379a0000000000000000000000000000000000000000000000000000000008152600401610da6906123e3565b60405180910390fd5b565b6000600760009054906101000a900473ffffffffffffffffffffffffffffffffffffffff16905081600760006101000a81548173ffffffffffffffffffffffffffffffffffffffff021916908373ffffffffffffffffffffffffffffffffffffffff1602179055508173ffffffffffffffffffffffffffffffffffffffff168173ffffffffffffffffffffffffffffffffffffffff167f8be0079c531659141344cd1fd0a4f28419497f9722a3daafe3b4186f6b6457e060405160405180910390a35050565b606060405180602001604052806000815250905090565b6060610e9982610be9565b6000610ea3610e77565b90506000815111610ec35760405180602001604052806000815250610eee565b80610ecd84611004565b604051602001610ede929190611fd1565b6040516020818303038152906040525b915050919050565b60007f01ffc9a7000000000000000000000000000000000000000000000000000000007bffffffffffffffffffffffffffffffffffffffffffffffffffffffff1916827bffffffffffffffffffffffffffffffffffffffffffffffffffffffff1916149050919050565b60008073ffffffffffffffffffffffffffffffffffffffff16610f8283610cf6565b73ffffffffffffffffffffffffffffffffffffffff1614159050919050565b610fab83836110d2565b610fb860008484846112ef565b610ff7576040517f08c379a0000000000000000000000000000000000000000000000000000000008152600401610fee90612475565b60405180910390fd5b505050565b600033905090565b60606000600161101384611476565b01905060008167ffffffffffffffff81111561103257611031611966565b5b6040519080825280601f01601f1916602001820160405280156110645781602001600182028036833780820191505090505b509050600082602001820190505b6001156110c7578080600190039150507f3031323334353637383961626364656600000000000000000000000000000000600a86061a8153600a85816110bb576110ba612495565b5b04945060008503611072575b819350505050919050565b600073ffffffffffffffffffffffffffffffffffffffff168273ffffffffffffffffffffffffffffffffffffffff1603611141576040517f08c379a000000000000000000000000000000000000000000000000000000000815260040161113890612510565b60405180910390fd5b61114a81610f60565b1561118a576040517f08c379a00000000000000000000000000000000000000000000000000000000081526004016111819061257c565b60405180910390fd5b6111986000838360016115c9565b6111a181610f60565b156111e1576040517f08c379a00000000000000000000000000000000000000000000000000000000081526004016111d89061257c565b60405180910390fd5b6001600360008473ffffffffffffffffffffffffffffffffffffffff1673ffffffffffffffffffffffffffffffffffffffff16815260200190815260200160002060008282540192505081905550816002600083815260200190815260200160002060006101000a81548173ffffffffffffffffffffffffffffffffffffffff021916908373ffffffffffffffffffffffffffffffffffffffff160217905550808273ffffffffffffffffffffffffffffffffffffffff16600073ffffffffffffffffffffffffffffffffffffffff167fddf252ad1be2c89b69c2b068fc378daa952ba7f163c4a11628f55a4df523b3ef60405160405180910390a46112eb600083836001611681565b5050565b60006113108473ffffffffffffffffffffffffffffffffffffffff16611687565b15611469578373ffffffffffffffffffffffffffffffffffffffff1663150b7a02611339610ffc565b8786866040518563ffffffff1660e01b815260040161135b94939291906125f1565b6020604051808303816000875af192505050801561139757506040513d601f19601f820116820180604052508101906113949190612652565b60015b611419573d80600081146113c7576040519150601f19603f3d011682016040523d82523d6000602084013e6113cc565b606091505b506000815103611411576040517f08c379a000000000000000000000000000000000000000000000000000000000815260040161140890612475565b60405180910390fd5b805181602001fd5b63150b7a0260e01b7bffffffffffffffffffffffffffffffffffffffffffffffffffffffff1916817bffffffffffffffffffffffffffffffffffffffffffffffffffffffff19161491505061146e565b600190505b949350505050565b600080600090507a184f03e93ff9f4daa797ed6e38ed64bf6a1f01000000000000000083106114d4577a184f03e93ff9f4daa797ed6e38ed64bf6a1f01000000000000000083816114ca576114c9612495565b5b0492506040810190505b6d04ee2d6d415b85acef81000000008310611511576d04ee2d6d415b85acef8100000000838161150757611506612495565b5b0492506020810190505b662386f26fc10000831061154057662386f26fc10000838161153657611535612495565b5b0492506010810190505b6305f5e1008310611569576305f5e100838161155f5761155e612495565b5b0492506008810190505b612710831061158e57612710838161158457611583612495565b5b0492506004810190505b606483106115b157606483816115a7576115a6612495565b5b0492506002810190505b600a83106115c0576001810190505b80915050919050565b600073ffffffffffffffffffffffffffffffffffffffff168473ffffffffffffffffffffffffffffffffffffffff1614806116305750600073ffffffffffffffffffffffffffffffffffffffff168373ffffffffffffffffffffffffffffffffffffffff16145b61166f576040517f08c379a000000000000000000000000000000000000000000000000000000000815260040161166690611e00565b60405180910390fd5b61167b848484846116aa565b50505050565b50505050565b6000808273ffffffffffffffffffffffffffffffffffffffff163b119050919050565b50505050565b6000604051905090565b600080fd5b600080fd5b60007fffffffff0000000000000000000000000000000000000000000000000000000082169050919050565b6116f9816116c4565b811461170457600080fd5b50565b600081359050611716816116f0565b92915050565b600060208284031215611732576117316116ba565b5b600061174084828501611707565b91505092915050565b60008115159050919050565b61175e81611749565b82525050565b60006020820190506117796000830184611755565b92915050565b600081519050919050565b600082825260208201905092915050565b60005b838110156117b957808201518184015260208101905061179e565b60008484015250505050565b6000601f19601f8301169050919050565b60006117e18261177f565b6117eb818561178a565b93506117fb81856020860161179b565b611804816117c5565b840191505092915050565b6000602082019050818103600083015261182981846117d6565b905092915050565b6000819050919050565b61184481611831565b811461184f57600080fd5b50565b6000813590506118618161183b565b92915050565b60006020828403121561187d5761187c6116ba565b5b600061188b84828501611852565b91505092915050565b600073ffffffffffffffffffffffffffffffffffffffff82169050919050565b60006118bf82611894565b9050919050565b6118cf816118b4565b82525050565b60006020820190506118ea60008301846118c6565b92915050565b6118f9816118b4565b811461190457600080fd5b50565b600081359050611916816118f0565b92915050565b60008060408385031215611933576119326116ba565b5b600061194185828601611907565b925050602061195285828601611852565b9150509250929050565b600080fd5b600080fd5b7f4e487b7100000000000000000000000000000000000000000000000000000000600052604160045260246000fd5b61199e826117c5565b810181811067ffffffffffffffff821117156119bd576119bc611966565b5b80604052505050565b60006119d06116b0565b90506119dc8282611995565b919050565b600067ffffffffffffffff8211156119fc576119fb611966565b5b611a05826117c5565b9050602081019050919050565b82818337600083830152505050565b6000611a34611a2f846119e1565b6119c6565b905082815260208101848484011115611a5057611a4f611961565b5b611a5b848285611a12565b509392505050565b600082601f830112611a7857611a7761195c565b5b8135611a88848260208601611a21565b91505092915050565b600060208284031215611aa757611aa66116ba565b5b600082013567ffffffffffffffff811115611ac557611ac46116bf565b5b611ad184828501611a63565b91505092915050565b600080600060608486031215611af357611af26116ba565b5b6000611b0186828701611907565b9350506020611b1286828701611907565b9250506040611b2386828701611852565b9150509250925092565b600060208284031215611b4357611b426116ba565b5b6000611b5184828501611907565b91505092915050565b611b6381611831565b82525050565b6000602082019050611b7e6000830184611b5a565b92915050565b611b8d81611749565b8114611b9857600080fd5b50565b600081359050611baa81611b84565b92915050565b60008060408385031215611bc757611bc66116ba565b5b6000611bd585828601611907565b9250506020611be685828601611b9b565b9150509250929050565b600067ffffffffffffffff821115611c0b57611c0a611966565b5b611c14826117c5565b9050602081019050919050565b6000611c34611c2f84611bf0565b6119c6565b905082815260208101848484011115611c5057611c4f611961565b5b611c5b848285611a12565b509392505050565b600082601f830112611c7857611c7761195c565b5b8135611c88848260208601611c21565b91505092915050565b60008060008060808587031215611cab57611caa6116ba565b5b6000611cb987828801611907565b9450506020611cca87828801611907565b9350506040611cdb87828801611852565b925050606085013567ffffffffffffffff811115611cfc57611cfb6116bf565b5b611d0887828801611c63565b91505092959194509250565b60008060408385031215611d2b57611d2a6116ba565b5b6000611d3985828601611907565b9250506020611d4a85828601611907565b9150509250929050565b7f4e487b7100000000000000000000000000000000000000000000000000000000600052602260045260246000fd5b60006002820490506001821680611d9b57607f821691505b602082108103611dae57611dad611d54565b5b50919050565b7f5342543a206e6f6e2d7472616e7366657261626c650000000000000000000000600082015250565b6000611dea60158361178a565b9150611df582611db4565b602082019050919050565b60006020820190508181036000830152611e1981611ddd565b9050919050565b7f4e487b7100000000000000000000000000000000000000000000000000000000600052601160045260246000fd5b6000611e5a82611831565b91507fffffffffffffffffffffffffffffffffffffffffffffffffffffffffffffffff8203611e8c57611e8b611e20565b5b600182019050919050565b7f4552433732313a20696e76616c696420746f6b656e2049440000000000000000600082015250565b6000611ecd60188361178a565b9150611ed882611e97565b602082019050919050565b60006020820190508181036000830152611efc81611ec0565b9050919050565b7f4552433732313a2061646472657373207a65726f206973206e6f74206120766160008201527f6c6964206f776e65720000000000000000000000000000000000000000000000602082015250565b6000611f5f60298361178a565b9150611f6a82611f03565b604082019050919050565b60006020820190508181036000830152611f8e81611f52565b9050919050565b600081905092915050565b6000611fab8261177f565b611fb58185611f95565b9350611fc581856020860161179b565b80840191505092915050565b6000611fdd8285611fa0565b9150611fe98284611fa0565b91508190509392505050565b7f4f776e61626c653a206e6577206f776e657220697320746865207a65726f206160008201527f6464726573730000000000000000000000000000000000000000000000000000602082015250565b600061205160268361178a565b915061205c82611ff5565b604082019050919050565b6000602082019050818103600083015261208081612044565b9050919050565b7f45524337323155524953746f726167653a2055524920736574206f66206e6f6e60008201527f6578697374656e7420746f6b656e000000000000000000000000000000000000602082015250565b60006120e3602e8361178a565b91506120ee82612087565b604082019050919050565b60006020820190508181036000830152612112816120d6565b9050919050565b60008190508160005260206000209050919050565b60006020601f8301049050919050565b600082821b905092915050565b60006008830261217b7fffffffffffffffffffffffffffffffffffffffffffffffffffffffffffffffff8261213e565b612185868361213e565b95508019841693508086168417925050509392505050565b6000819050919050565b60006121c26121bd6121b884611831565b61219d565b611831565b9050919050565b6000819050919050565b6121dc836121a7565b6121f06121e8826121c9565b84845461214b565b825550505050565b600090565b6122056121f8565b6122108184846121d3565b505050565b5b81811015612234576122296000826121fd565b600181019050612216565b5050565b601f8211156122795761224a81612119565b6122538461212e565b81016020851015612262578190505b61227661226e8561212e565b830182612215565b50505b505050565b600082821c905092915050565b600061229c6000198460080261227e565b1980831691505092915050565b60006122b5838361228b565b9150826002028217905092915050565b6122ce8261177f565b67ffffffffffffffff8111156122e7576122e6611966565b5b6122f18254611d83565b6122fc828285612238565b600060209050601f83116001811461232f576000841561231d578287015190505b61232785826122a9565b86555061238f565b601f19841661233d86612119565b60005b8281101561236557848901518255600182019150602085019450602081019050612340565b86831015612382578489015161237e601f89168261228b565b8355505b6001600288020188555050505b505050505050565b7f4f776e61626c653a2063616c6c6572206973206e6f7420746865206f776e6572600082015250565b60006123cd60208361178a565b91506123d882612397565b602082019050919050565b600060208201905081810360008301526123fc816123c0565b9050919050565b7f4552433732313a207472616e7366657220746f206e6f6e20455243373231526560008201527f63656976657220696d706c656d656e7465720000000000000000000000000000602082015250565b600061245f60328361178a565b915061246a82612403565b604082019050919050565b6000602082019050818103600083015261248e81612452565b9050919050565b7f4e487b7100000000000000000000000000000000000000000000000000000000600052601260045260246000fd5b7f4552433732313a206d696e7420746f20746865207a65726f2061646472657373600082015250565b60006124fa60208361178a565b9150612505826124c4565b602082019050919050565b60006020820190508181036000830152612529816124ed565b9050919050565b7f4552433732313a20746f6b656e20616c7265616479206d696e74656400000000600082015250565b6000612566601c8361178a565b915061257182612530565b602082019050919050565b6000602082019050818103600083015261259581612559565b9050919050565b600081519050919050565b600082825260208201905092915050565b60006125c38261259c565b6125cd81856125a7565b93506125dd81856020860161179b565b6125e6816117c5565b840191505092915050565b600060808201905061260660008301876118c6565b61261360208301866118c6565b6126206040830185611b5a565b818103606083015261263281846125b8565b905095945050505050565b60008151905061264c816116f0565b92915050565b600060208284031215612668576126676116ba565b5b60006126768482850161263d565b9150509291505056fea2646970667358221220b175b63fded9715c6364db8ed951dbb7b6af31d6fd296c9899ebabb4302e059064736f6c63430008140033",
  "linkReferences": {},
  "deployedLinkReferences": {}
}